{
	"data": {
		"bytecode": {
			"linkReferences": {},
			"object": "60806040523480156200001157600080fd5b5060405162001a4c38038062001a4c8339818101604052810190620000379190620006e6565b336000806101000a81548173ffffffffffffffffffffffffffffffffffffffff021916908373ffffffffffffffffffffffffffffffffffffffff16021790555082600160008060009054906101000a900473ffffffffffffffffffffffffffffffffffffffff1673ffffffffffffffffffffffffffffffffffffffff1673ffffffffffffffffffffffffffffffffffffffff1681526020019081526020016000206000019080519060200190620000f092919062000362565b5081600160008060009054906101000a900473ffffffffffffffffffffffffffffffffffffffff1673ffffffffffffffffffffffffffffffffffffffff1673ffffffffffffffffffffffffffffffffffffffff1681526020019081526020016000206001018190555060005b815181101562000358576002604051806080016040528084848151811062000189576200018862000780565b5b602002602001015181526020016000815260200160008152602001600081525090806001815401808255809150506001900390600052602060002090600402016000909190919091506000820151816000019080519060200190620001f092919062000362565b506020820151816001015560408201518160020155606082015181600301555050600160008060009054906101000a900473ffffffffffffffffffffffffffffffffffffffff1673ffffffffffffffffffffffffffffffffffffffff1673ffffffffffffffffffffffffffffffffffffffff168152602001908152602001600020600301600090806001815401808255809150506001900390600052602060002090602091828204019190069091909190916101000a81548160ff021916908315150217905550600160008060009054906101000a900473ffffffffffffffffffffffffffffffffffffffff1673ffffffffffffffffffffffffffffffffffffffff1673ffffffffffffffffffffffffffffffffffffffff1681526020019081526020016000206002016000908060018154018082558091505060019003906000526020600020016000909190919091505580806200034f90620007de565b9150506200015c565b5050505062000891565b82805462000370906200085b565b90600052602060002090601f016020900481019282620003945760008555620003e0565b82601f10620003af57805160ff1916838001178555620003e0565b82800160010185558215620003e0579182015b82811115620003df578251825591602001919060010190620003c2565b5b509050620003ef9190620003f3565b5090565b5b808211156200040e576000816000905550600101620003f4565b5090565b6000604051905090565b600080fd5b600080fd5b600080fd5b600080fd5b6000601f19601f8301169050919050565b7f4e487b7100000000000000000000000000000000000000000000000000000000600052604160045260246000fd5b6200047b8262000430565b810181811067ffffffffffffffff821117156200049d576200049c62000441565b5b80604052505050565b6000620004b262000412565b9050620004c0828262000470565b919050565b600067ffffffffffffffff821115620004e357620004e262000441565b5b620004ee8262000430565b9050602081019050919050565b60005b838110156200051b578082015181840152602081019050620004fe565b838111156200052b576000848401525b50505050565b6000620005486200054284620004c5565b620004a6565b9050828152602081018484840111156200056757620005666200042b565b5b62000574848285620004fb565b509392505050565b600082601f83011262000594576200059362000426565b5b8151620005a684826020860162000531565b91505092915050565b6000819050919050565b620005c481620005af565b8114620005d057600080fd5b50565b600081519050620005e481620005b9565b92915050565b600067ffffffffffffffff82111562000608576200060762000441565b5b602082029050602081019050919050565b600080fd5b6000620006356200062f84620005ea565b620004a6565b905080838252602082019050602084028301858111156200065b576200065a62000619565b5b835b81811015620006a957805167ffffffffffffffff81111562000684576200068362000426565b5b8086016200069389826200057c565b855260208501945050506020810190506200065d565b5050509392505050565b600082601f830112620006cb57620006ca62000426565b5b8151620006dd8482602086016200061e565b91505092915050565b6000806000606084860312156200070257620007016200041c565b5b600084015167ffffffffffffffff81111562000723576200072262000421565b5b62000731868287016200057c565b93505060206200074486828701620005d3565b925050604084015167ffffffffffffffff81111562000768576200076762000421565b5b6200077686828701620006b3565b9150509250925092565b7f4e487b7100000000000000000000000000000000000000000000000000000000600052603260045260246000fd5b7f4e487b7100000000000000000000000000000000000000000000000000000000600052601160045260246000fd5b6000620007eb82620005af565b91507fffffffffffffffffffffffffffffffffffffffffffffffffffffffffffffffff821415620008215762000820620007af565b5b600182019050919050565b7f4e487b7100000000000000000000000000000000000000000000000000000000600052602260045260246000fd5b600060028204905060018216806200087457607f821691505b602082108114156200088b576200088a6200082c565b5b50919050565b6111ab80620008a16000396000f3fe608060405234801561001057600080fd5b50600436106100625760003560e01c8063013cf08b146100675780633723bc0e1461009a5780637ae7b6c5146100b8578063a3ec138d146100d9578063ce50aa7d1461010a578063d46a5d7e14610126575b600080fd5b610081600480360381019061007c9190610b62565b610142565b6040516100919493929190610c37565b60405180910390f35b6100a261020a565b6040516100af9190610cc4565b60405180910390f35b6100c061022e565b6040516100d09493929190610c37565b60405180910390f35b6100f360048036038101906100ee9190610d0b565b6103dd565b604051610101929190610d38565b60405180910390f35b610124600480360381019061011f9190610d68565b610489565b005b610140600480360381019061013b9190610de0565b610651565b005b6002818154811061015257600080fd5b906000526020600020906004020160009150905080600001805461017590610e62565b80601f01602080910402602001604051908101604052809291908181526020018280546101a190610e62565b80156101ee5780601f106101c3576101008083540402835291602001916101ee565b820191906000526020600020905b8154815290600101906020018083116101d157829003601f168201915b5050505050908060010154908060020154908060030154905084565b60008054906101000a900473ffffffffffffffffffffffffffffffffffffffff1681565b6060600080600080600090505b6002805490508110156103d6576002818154811061025c5761025b610e94565b5b9060005260206000209060040201600301546002828154811061028257610281610e94565b5b90600052602060002090600402016002015411156103c357600281815481106102ae576102ad610e94565b5b906000526020600020906004020160000180546102ca90610e62565b80601f01602080910402602001604051908101604052809291908181526020018280546102f690610e62565b80156103435780601f1061031857610100808354040283529160200191610343565b820191906000526020600020905b81548152906001019060200180831161032657829003601f168201915b505050505094506002818154811061035e5761035d610e94565b5b90600052602060002090600402016001015493506002818154811061038657610385610e94565b5b9060005260206000209060040201600201549250600281815481106103ae576103ad610e94565b5b90600052602060002090600402016003015491505b80806103ce90610ef2565b91505061023b565b5090919293565b600160205280600052604060002060009150905080600001805461040090610e62565b80601f016020809104026020016040519081016040528092919081815260200182805461042c90610e62565b80156104795780601f1061044e57610100808354040283529160200191610479565b820191906000526020600020905b81548152906001019060200180831161045c57829003601f168201915b5050505050908060010154905082565b600160008373ffffffffffffffffffffffffffffffffffffffff1673ffffffffffffffffffffffffffffffffffffffff16815260200190815260200160002060030181815481106104dd576104dc610e94565b5b90600052602060002090602091828204019190069054906101000a900460ff161561053d576040517f08c379a000000000000000000000000000000000000000000000000000000000815260040161053490610f87565b60405180910390fd5b6000600160008473ffffffffffffffffffffffffffffffffffffffff1673ffffffffffffffffffffffffffffffffffffffff168152602001908152602001600020600201828154811061059357610592610e94565b5b9060005260206000200154146105a857600080fd5b600160008373ffffffffffffffffffffffffffffffffffffffff1673ffffffffffffffffffffffffffffffffffffffff16815260200190815260200160002060010154600160008473ffffffffffffffffffffffffffffffffffffffff1673ffffffffffffffffffffffffffffffffffffffff168152602001908152602001600020600201828154811061063f5761063e610e94565b5b90600052602060002001819055505050565b6000600160003373ffffffffffffffffffffffffffffffffffffffff1673ffffffffffffffffffffffffffffffffffffffff16815260200190815260200160002090506000816001015414156106dc576040517f08c379a00000000000000000000000000000000000000000000000000000000081526004016106d390610ff3565b60405180910390fd5b8060030184815481106106f2576106f1610e94565b5b90600052602060002090602091828204019190069054906101000a900460ff16158061079e57506000600160008060009054906101000a900473ffffffffffffffffffffffffffffffffffffffff1673ffffffffffffffffffffffffffffffffffffffff1673ffffffffffffffffffffffffffffffffffffffff16815260200190815260200160002060020185815481106107905761078f610e94565b5b906000526020600020015414155b6107dd576040517f08c379a00000000000000000000000000000000000000000000000000000000081526004016107d49061105f565b60405180910390fd5b81600160008060009054906101000a900473ffffffffffffffffffffffffffffffffffffffff1673ffffffffffffffffffffffffffffffffffffffff1673ffffffffffffffffffffffffffffffffffffffff168152602001908152602001600020600201858154811061085357610852610e94565b5b90600052602060002001541061089e576040517f08c379a0000000000000000000000000000000000000000000000000000000008152600401610895906110cb565b60405180910390fd5b60018160030185815481106108b6576108b5610e94565b5b90600052602060002090602091828204019190066101000a81548160ff02191690831515021790555082156109265781600285815481106108fa576108f9610e94565b5b9060005260206000209060040201600201600082825461091a91906110eb565b92505081905550610963565b816002858154811061093b5761093a610e94565b5b9060005260206000209060040201600301600082825461095b91906110eb565b925050819055505b81600160008060009054906101000a900473ffffffffffffffffffffffffffffffffffffffff1673ffffffffffffffffffffffffffffffffffffffff1673ffffffffffffffffffffffffffffffffffffffff16815260200190815260200160002060020185815481106109d9576109d8610e94565b5b9060005260206000200160008282546109f29190611141565b92505081905550600160008060009054906101000a900473ffffffffffffffffffffffffffffffffffffffff1673ffffffffffffffffffffffffffffffffffffffff1673ffffffffffffffffffffffffffffffffffffffff16815260200190815260200160002060010154600160008060009054906101000a900473ffffffffffffffffffffffffffffffffffffffff1673ffffffffffffffffffffffffffffffffffffffff1673ffffffffffffffffffffffffffffffffffffffff1681526020019081526020016000206002018581548110610ad257610ad1610e94565b5b90600052602060002001541415610b2157600160028581548110610af957610af8610e94565b5b90600052602060002090600402016001016000828254610b1991906110eb565b925050819055505b50505050565b600080fd5b6000819050919050565b610b3f81610b2c565b8114610b4a57600080fd5b50565b600081359050610b5c81610b36565b92915050565b600060208284031215610b7857610b77610b27565b5b6000610b8684828501610b4d565b91505092915050565b600081519050919050565b600082825260208201905092915050565b60005b83811015610bc9578082015181840152602081019050610bae565b83811115610bd8576000848401525b50505050565b6000601f19601f8301169050919050565b6000610bfa82610b8f565b610c048185610b9a565b9350610c14818560208601610bab565b610c1d81610bde565b840191505092915050565b610c3181610b2c565b82525050565b60006080820190508181036000830152610c518187610bef565b9050610c606020830186610c28565b610c6d6040830185610c28565b610c7a6060830184610c28565b95945050505050565b600073ffffffffffffffffffffffffffffffffffffffff82169050919050565b6000610cae82610c83565b9050919050565b610cbe81610ca3565b82525050565b6000602082019050610cd96000830184610cb5565b92915050565b610ce881610ca3565b8114610cf357600080fd5b50565b600081359050610d0581610cdf565b92915050565b600060208284031215610d2157610d20610b27565b5b6000610d2f84828501610cf6565b91505092915050565b60006040820190508181036000830152610d528185610bef565b9050610d616020830184610c28565b9392505050565b60008060408385031215610d7f57610d7e610b27565b5b6000610d8d85828601610cf6565b9250506020610d9e85828601610b4d565b9150509250929050565b60008115159050919050565b610dbd81610da8565b8114610dc857600080fd5b50565b600081359050610dda81610db4565b92915050565b600080600060608486031215610df957610df8610b27565b5b6000610e0786828701610b4d565b9350506020610e1886828701610dcb565b9250506040610e2986828701610b4d565b9150509250925092565b7f4e487b7100000000000000000000000000000000000000000000000000000000600052602260045260246000fd5b60006002820490506001821680610e7a57607f821691505b60208210811415610e8e57610e8d610e33565b5b50919050565b7f4e487b7100000000000000000000000000000000000000000000000000000000600052603260045260246000fd5b7f4e487b7100000000000000000000000000000000000000000000000000000000600052601160045260246000fd5b6000610efd82610b2c565b91507fffffffffffffffffffffffffffffffffffffffffffffffffffffffffffffffff821415610f3057610f2f610ec3565b5b600182019050919050565b7f54686520766f74657220616c726561647920766f746564000000000000000000600082015250565b6000610f71601783610b9a565b9150610f7c82610f3b565b602082019050919050565b60006020820190508181036000830152610fa081610f64565b9050919050565b7f486173206e6f20726967687420746f20766f7465000000000000000000000000600082015250565b6000610fdd601483610b9a565b9150610fe882610fa7565b602082019050919050565b6000602082019050818103600083015261100c81610fd0565b9050919050565b7f416c726561647920766f74656400000000000000000000000000000000000000600082015250565b6000611049600d83610b9a565b915061105482611013565b602082019050919050565b600060208201905081810360008301526110788161103c565b9050919050565b7f4e6f7420656e6f75676820766f74657300000000000000000000000000000000600082015250565b60006110b5601083610b9a565b91506110c08261107f565b602082019050919050565b600060208201905081810360008301526110e4816110a8565b9050919050565b60006110f682610b2c565b915061110183610b2c565b9250827fffffffffffffffffffffffffffffffffffffffffffffffffffffffffffffffff0382111561113657611135610ec3565b5b828201905092915050565b600061114c82610b2c565b915061115783610b2c565b92508282101561116a57611169610ec3565b5b82820390509291505056fea264697066735822122027548d141abf1a7df4f265e976859d9d139462e63f8c1ae25c7056a088f6868f64736f6c63430008090033",
			"opcodes": "PUSH1 0x80 PUSH1 0x40 MSTORE CALLVALUE DUP1 ISZERO PUSH3 0x11 JUMPI PUSH1 0x0 DUP1 REVERT JUMPDEST POP PUSH1 0x40 MLOAD PUSH3 0x1A4C CODESIZE SUB DUP1 PUSH3 0x1A4C DUP4 CODECOPY DUP2 DUP2 ADD PUSH1 0x40 MSTORE DUP2 ADD SWAP1 PUSH3 0x37 SWAP2 SWAP1 PUSH3 0x6E6 JUMP JUMPDEST CALLER PUSH1 0x0 DUP1 PUSH2 0x100 EXP DUP2 SLOAD DUP2 PUSH20 0xFFFFFFFFFFFFFFFFFFFFFFFFFFFFFFFFFFFFFFFF MUL NOT AND SWAP1 DUP4 PUSH20 0xFFFFFFFFFFFFFFFFFFFFFFFFFFFFFFFFFFFFFFFF AND MUL OR SWAP1 SSTORE POP DUP3 PUSH1 0x1 PUSH1 0x0 DUP1 PUSH1 0x0 SWAP1 SLOAD SWAP1 PUSH2 0x100 EXP SWAP1 DIV PUSH20 0xFFFFFFFFFFFFFFFFFFFFFFFFFFFFFFFFFFFFFFFF AND PUSH20 0xFFFFFFFFFFFFFFFFFFFFFFFFFFFFFFFFFFFFFFFF AND PUSH20 0xFFFFFFFFFFFFFFFFFFFFFFFFFFFFFFFFFFFFFFFF AND DUP2 MSTORE PUSH1 0x20 ADD SWAP1 DUP2 MSTORE PUSH1 0x20 ADD PUSH1 0x0 KECCAK256 PUSH1 0x0 ADD SWAP1 DUP1 MLOAD SWAP1 PUSH1 0x20 ADD SWAP1 PUSH3 0xF0 SWAP3 SWAP2 SWAP1 PUSH3 0x362 JUMP JUMPDEST POP DUP2 PUSH1 0x1 PUSH1 0x0 DUP1 PUSH1 0x0 SWAP1 SLOAD SWAP1 PUSH2 0x100 EXP SWAP1 DIV PUSH20 0xFFFFFFFFFFFFFFFFFFFFFFFFFFFFFFFFFFFFFFFF AND PUSH20 0xFFFFFFFFFFFFFFFFFFFFFFFFFFFFFFFFFFFFFFFF AND PUSH20 0xFFFFFFFFFFFFFFFFFFFFFFFFFFFFFFFFFFFFFFFF AND DUP2 MSTORE PUSH1 0x20 ADD SWAP1 DUP2 MSTORE PUSH1 0x20 ADD PUSH1 0x0 KECCAK256 PUSH1 0x1 ADD DUP2 SWAP1 SSTORE POP PUSH1 0x0 JUMPDEST DUP2 MLOAD DUP2 LT ISZERO PUSH3 0x358 JUMPI PUSH1 0x2 PUSH1 0x40 MLOAD DUP1 PUSH1 0x80 ADD PUSH1 0x40 MSTORE DUP1 DUP5 DUP5 DUP2 MLOAD DUP2 LT PUSH3 0x189 JUMPI PUSH3 0x188 PUSH3 0x780 JUMP JUMPDEST JUMPDEST PUSH1 0x20 MUL PUSH1 0x20 ADD ADD MLOAD DUP2 MSTORE PUSH1 0x20 ADD PUSH1 0x0 DUP2 MSTORE PUSH1 0x20 ADD PUSH1 0x0 DUP2 MSTORE PUSH1 0x20 ADD PUSH1 0x0 DUP2 MSTORE POP SWAP1 DUP1 PUSH1 0x1 DUP2 SLOAD ADD DUP1 DUP3 SSTORE DUP1 SWAP2 POP POP PUSH1 0x1 SWAP1 SUB SWAP1 PUSH1 0x0 MSTORE PUSH1 0x20 PUSH1 0x0 KECCAK256 SWAP1 PUSH1 0x4 MUL ADD PUSH1 0x0 SWAP1 SWAP2 SWAP1 SWAP2 SWAP1 SWAP2 POP PUSH1 0x0 DUP3 ADD MLOAD DUP2 PUSH1 0x0 ADD SWAP1 DUP1 MLOAD SWAP1 PUSH1 0x20 ADD SWAP1 PUSH3 0x1F0 SWAP3 SWAP2 SWAP1 PUSH3 0x362 JUMP JUMPDEST POP PUSH1 0x20 DUP3 ADD MLOAD DUP2 PUSH1 0x1 ADD SSTORE PUSH1 0x40 DUP3 ADD MLOAD DUP2 PUSH1 0x2 ADD SSTORE PUSH1 0x60 DUP3 ADD MLOAD DUP2 PUSH1 0x3 ADD SSTORE POP POP PUSH1 0x1 PUSH1 0x0 DUP1 PUSH1 0x0 SWAP1 SLOAD SWAP1 PUSH2 0x100 EXP SWAP1 DIV PUSH20 0xFFFFFFFFFFFFFFFFFFFFFFFFFFFFFFFFFFFFFFFF AND PUSH20 0xFFFFFFFFFFFFFFFFFFFFFFFFFFFFFFFFFFFFFFFF AND PUSH20 0xFFFFFFFFFFFFFFFFFFFFFFFFFFFFFFFFFFFFFFFF AND DUP2 MSTORE PUSH1 0x20 ADD SWAP1 DUP2 MSTORE PUSH1 0x20 ADD PUSH1 0x0 KECCAK256 PUSH1 0x3 ADD PUSH1 0x0 SWAP1 DUP1 PUSH1 0x1 DUP2 SLOAD ADD DUP1 DUP3 SSTORE DUP1 SWAP2 POP POP PUSH1 0x1 SWAP1 SUB SWAP1 PUSH1 0x0 MSTORE PUSH1 0x20 PUSH1 0x0 KECCAK256 SWAP1 PUSH1 0x20 SWAP2 DUP3 DUP3 DIV ADD SWAP2 SWAP1 MOD SWAP1 SWAP2 SWAP1 SWAP2 SWAP1 SWAP2 PUSH2 0x100 EXP DUP2 SLOAD DUP2 PUSH1 0xFF MUL NOT AND SWAP1 DUP4 ISZERO ISZERO MUL OR SWAP1 SSTORE POP PUSH1 0x1 PUSH1 0x0 DUP1 PUSH1 0x0 SWAP1 SLOAD SWAP1 PUSH2 0x100 EXP SWAP1 DIV PUSH20 0xFFFFFFFFFFFFFFFFFFFFFFFFFFFFFFFFFFFFFFFF AND PUSH20 0xFFFFFFFFFFFFFFFFFFFFFFFFFFFFFFFFFFFFFFFF AND PUSH20 0xFFFFFFFFFFFFFFFFFFFFFFFFFFFFFFFFFFFFFFFF AND DUP2 MSTORE PUSH1 0x20 ADD SWAP1 DUP2 MSTORE PUSH1 0x20 ADD PUSH1 0x0 KECCAK256 PUSH1 0x2 ADD PUSH1 0x0 SWAP1 DUP1 PUSH1 0x1 DUP2 SLOAD ADD DUP1 DUP3 SSTORE DUP1 SWAP2 POP POP PUSH1 0x1 SWAP1 SUB SWAP1 PUSH1 0x0 MSTORE PUSH1 0x20 PUSH1 0x0 KECCAK256 ADD PUSH1 0x0 SWAP1 SWAP2 SWAP1 SWAP2 SWAP1 SWAP2 POP SSTORE DUP1 DUP1 PUSH3 0x34F SWAP1 PUSH3 0x7DE JUMP JUMPDEST SWAP2 POP POP PUSH3 0x15C JUMP JUMPDEST POP POP POP POP PUSH3 0x891 JUMP JUMPDEST DUP3 DUP1 SLOAD PUSH3 0x370 SWAP1 PUSH3 0x85B JUMP JUMPDEST SWAP1 PUSH1 0x0 MSTORE PUSH1 0x20 PUSH1 0x0 KECCAK256 SWAP1 PUSH1 0x1F ADD PUSH1 0x20 SWAP1 DIV DUP2 ADD SWAP3 DUP3 PUSH3 0x394 JUMPI PUSH1 0x0 DUP6 SSTORE PUSH3 0x3E0 JUMP JUMPDEST DUP3 PUSH1 0x1F LT PUSH3 0x3AF JUMPI DUP1 MLOAD PUSH1 0xFF NOT AND DUP4 DUP1 ADD OR DUP6 SSTORE PUSH3 0x3E0 JUMP JUMPDEST DUP3 DUP1 ADD PUSH1 0x1 ADD DUP6 SSTORE DUP3 ISZERO PUSH3 0x3E0 JUMPI SWAP2 DUP3 ADD JUMPDEST DUP3 DUP2 GT ISZERO PUSH3 0x3DF JUMPI DUP3 MLOAD DUP3 SSTORE SWAP2 PUSH1 0x20 ADD SWAP2 SWAP1 PUSH1 0x1 ADD SWAP1 PUSH3 0x3C2 JUMP JUMPDEST JUMPDEST POP SWAP1 POP PUSH3 0x3EF SWAP2 SWAP1 PUSH3 0x3F3 JUMP JUMPDEST POP SWAP1 JUMP JUMPDEST JUMPDEST DUP1 DUP3 GT ISZERO PUSH3 0x40E JUMPI PUSH1 0x0 DUP2 PUSH1 0x0 SWAP1 SSTORE POP PUSH1 0x1 ADD PUSH3 0x3F4 JUMP JUMPDEST POP SWAP1 JUMP JUMPDEST PUSH1 0x0 PUSH1 0x40 MLOAD SWAP1 POP SWAP1 JUMP JUMPDEST PUSH1 0x0 DUP1 REVERT JUMPDEST PUSH1 0x0 DUP1 REVERT JUMPDEST PUSH1 0x0 DUP1 REVERT JUMPDEST PUSH1 0x0 DUP1 REVERT JUMPDEST PUSH1 0x0 PUSH1 0x1F NOT PUSH1 0x1F DUP4 ADD AND SWAP1 POP SWAP2 SWAP1 POP JUMP JUMPDEST PUSH32 0x4E487B7100000000000000000000000000000000000000000000000000000000 PUSH1 0x0 MSTORE PUSH1 0x41 PUSH1 0x4 MSTORE PUSH1 0x24 PUSH1 0x0 REVERT JUMPDEST PUSH3 0x47B DUP3 PUSH3 0x430 JUMP JUMPDEST DUP2 ADD DUP2 DUP2 LT PUSH8 0xFFFFFFFFFFFFFFFF DUP3 GT OR ISZERO PUSH3 0x49D JUMPI PUSH3 0x49C PUSH3 0x441 JUMP JUMPDEST JUMPDEST DUP1 PUSH1 0x40 MSTORE POP POP POP JUMP JUMPDEST PUSH1 0x0 PUSH3 0x4B2 PUSH3 0x412 JUMP JUMPDEST SWAP1 POP PUSH3 0x4C0 DUP3 DUP3 PUSH3 0x470 JUMP JUMPDEST SWAP2 SWAP1 POP JUMP JUMPDEST PUSH1 0x0 PUSH8 0xFFFFFFFFFFFFFFFF DUP3 GT ISZERO PUSH3 0x4E3 JUMPI PUSH3 0x4E2 PUSH3 0x441 JUMP JUMPDEST JUMPDEST PUSH3 0x4EE DUP3 PUSH3 0x430 JUMP JUMPDEST SWAP1 POP PUSH1 0x20 DUP2 ADD SWAP1 POP SWAP2 SWAP1 POP JUMP JUMPDEST PUSH1 0x0 JUMPDEST DUP4 DUP2 LT ISZERO PUSH3 0x51B JUMPI DUP1 DUP3 ADD MLOAD DUP2 DUP5 ADD MSTORE PUSH1 0x20 DUP2 ADD SWAP1 POP PUSH3 0x4FE JUMP JUMPDEST DUP4 DUP2 GT ISZERO PUSH3 0x52B JUMPI PUSH1 0x0 DUP5 DUP5 ADD MSTORE JUMPDEST POP POP POP POP JUMP JUMPDEST PUSH1 0x0 PUSH3 0x548 PUSH3 0x542 DUP5 PUSH3 0x4C5 JUMP JUMPDEST PUSH3 0x4A6 JUMP JUMPDEST SWAP1 POP DUP3 DUP2 MSTORE PUSH1 0x20 DUP2 ADD DUP5 DUP5 DUP5 ADD GT ISZERO PUSH3 0x567 JUMPI PUSH3 0x566 PUSH3 0x42B JUMP JUMPDEST JUMPDEST PUSH3 0x574 DUP5 DUP3 DUP6 PUSH3 0x4FB JUMP JUMPDEST POP SWAP4 SWAP3 POP POP POP JUMP JUMPDEST PUSH1 0x0 DUP3 PUSH1 0x1F DUP4 ADD SLT PUSH3 0x594 JUMPI PUSH3 0x593 PUSH3 0x426 JUMP JUMPDEST JUMPDEST DUP2 MLOAD PUSH3 0x5A6 DUP5 DUP3 PUSH1 0x20 DUP7 ADD PUSH3 0x531 JUMP JUMPDEST SWAP2 POP POP SWAP3 SWAP2 POP POP JUMP JUMPDEST PUSH1 0x0 DUP2 SWAP1 POP SWAP2 SWAP1 POP JUMP JUMPDEST PUSH3 0x5C4 DUP2 PUSH3 0x5AF JUMP JUMPDEST DUP2 EQ PUSH3 0x5D0 JUMPI PUSH1 0x0 DUP1 REVERT JUMPDEST POP JUMP JUMPDEST PUSH1 0x0 DUP2 MLOAD SWAP1 POP PUSH3 0x5E4 DUP2 PUSH3 0x5B9 JUMP JUMPDEST SWAP3 SWAP2 POP POP JUMP JUMPDEST PUSH1 0x0 PUSH8 0xFFFFFFFFFFFFFFFF DUP3 GT ISZERO PUSH3 0x608 JUMPI PUSH3 0x607 PUSH3 0x441 JUMP JUMPDEST JUMPDEST PUSH1 0x20 DUP3 MUL SWAP1 POP PUSH1 0x20 DUP2 ADD SWAP1 POP SWAP2 SWAP1 POP JUMP JUMPDEST PUSH1 0x0 DUP1 REVERT JUMPDEST PUSH1 0x0 PUSH3 0x635 PUSH3 0x62F DUP5 PUSH3 0x5EA JUMP JUMPDEST PUSH3 0x4A6 JUMP JUMPDEST SWAP1 POP DUP1 DUP4 DUP3 MSTORE PUSH1 0x20 DUP3 ADD SWAP1 POP PUSH1 0x20 DUP5 MUL DUP4 ADD DUP6 DUP2 GT ISZERO PUSH3 0x65B JUMPI PUSH3 0x65A PUSH3 0x619 JUMP JUMPDEST JUMPDEST DUP4 JUMPDEST DUP2 DUP2 LT ISZERO PUSH3 0x6A9 JUMPI DUP1 MLOAD PUSH8 0xFFFFFFFFFFFFFFFF DUP2 GT ISZERO PUSH3 0x684 JUMPI PUSH3 0x683 PUSH3 0x426 JUMP JUMPDEST JUMPDEST DUP1 DUP7 ADD PUSH3 0x693 DUP10 DUP3 PUSH3 0x57C JUMP JUMPDEST DUP6 MSTORE PUSH1 0x20 DUP6 ADD SWAP5 POP POP POP PUSH1 0x20 DUP2 ADD SWAP1 POP PUSH3 0x65D JUMP JUMPDEST POP POP POP SWAP4 SWAP3 POP POP POP JUMP JUMPDEST PUSH1 0x0 DUP3 PUSH1 0x1F DUP4 ADD SLT PUSH3 0x6CB JUMPI PUSH3 0x6CA PUSH3 0x426 JUMP JUMPDEST JUMPDEST DUP2 MLOAD PUSH3 0x6DD DUP5 DUP3 PUSH1 0x20 DUP7 ADD PUSH3 0x61E JUMP JUMPDEST SWAP2 POP POP SWAP3 SWAP2 POP POP JUMP JUMPDEST PUSH1 0x0 DUP1 PUSH1 0x0 PUSH1 0x60 DUP5 DUP7 SUB SLT ISZERO PUSH3 0x702 JUMPI PUSH3 0x701 PUSH3 0x41C JUMP JUMPDEST JUMPDEST PUSH1 0x0 DUP5 ADD MLOAD PUSH8 0xFFFFFFFFFFFFFFFF DUP2 GT ISZERO PUSH3 0x723 JUMPI PUSH3 0x722 PUSH3 0x421 JUMP JUMPDEST JUMPDEST PUSH3 0x731 DUP7 DUP3 DUP8 ADD PUSH3 0x57C JUMP JUMPDEST SWAP4 POP POP PUSH1 0x20 PUSH3 0x744 DUP7 DUP3 DUP8 ADD PUSH3 0x5D3 JUMP JUMPDEST SWAP3 POP POP PUSH1 0x40 DUP5 ADD MLOAD PUSH8 0xFFFFFFFFFFFFFFFF DUP2 GT ISZERO PUSH3 0x768 JUMPI PUSH3 0x767 PUSH3 0x421 JUMP JUMPDEST JUMPDEST PUSH3 0x776 DUP7 DUP3 DUP8 ADD PUSH3 0x6B3 JUMP JUMPDEST SWAP2 POP POP SWAP3 POP SWAP3 POP SWAP3 JUMP JUMPDEST PUSH32 0x4E487B7100000000000000000000000000000000000000000000000000000000 PUSH1 0x0 MSTORE PUSH1 0x32 PUSH1 0x4 MSTORE PUSH1 0x24 PUSH1 0x0 REVERT JUMPDEST PUSH32 0x4E487B7100000000000000000000000000000000000000000000000000000000 PUSH1 0x0 MSTORE PUSH1 0x11 PUSH1 0x4 MSTORE PUSH1 0x24 PUSH1 0x0 REVERT JUMPDEST PUSH1 0x0 PUSH3 0x7EB DUP3 PUSH3 0x5AF JUMP JUMPDEST SWAP2 POP PUSH32 0xFFFFFFFFFFFFFFFFFFFFFFFFFFFFFFFFFFFFFFFFFFFFFFFFFFFFFFFFFFFFFFFF DUP3 EQ ISZERO PUSH3 0x821 JUMPI PUSH3 0x820 PUSH3 0x7AF JUMP JUMPDEST JUMPDEST PUSH1 0x1 DUP3 ADD SWAP1 POP SWAP2 SWAP1 POP JUMP JUMPDEST PUSH32 0x4E487B7100000000000000000000000000000000000000000000000000000000 PUSH1 0x0 MSTORE PUSH1 0x22 PUSH1 0x4 MSTORE PUSH1 0x24 PUSH1 0x0 REVERT JUMPDEST PUSH1 0x0 PUSH1 0x2 DUP3 DIV SWAP1 POP PUSH1 0x1 DUP3 AND DUP1 PUSH3 0x874 JUMPI PUSH1 0x7F DUP3 AND SWAP2 POP JUMPDEST PUSH1 0x20 DUP3 LT DUP2 EQ ISZERO PUSH3 0x88B JUMPI PUSH3 0x88A PUSH3 0x82C JUMP JUMPDEST JUMPDEST POP SWAP2 SWAP1 POP JUMP JUMPDEST PUSH2 0x11AB DUP1 PUSH3 0x8A1 PUSH1 0x0 CODECOPY PUSH1 0x0 RETURN INVALID PUSH1 0x80 PUSH1 0x40 MSTORE CALLVALUE DUP1 ISZERO PUSH2 0x10 JUMPI PUSH1 0x0 DUP1 REVERT JUMPDEST POP PUSH1 0x4 CALLDATASIZE LT PUSH2 0x62 JUMPI PUSH1 0x0 CALLDATALOAD PUSH1 0xE0 SHR DUP1 PUSH4 0x13CF08B EQ PUSH2 0x67 JUMPI DUP1 PUSH4 0x3723BC0E EQ PUSH2 0x9A JUMPI DUP1 PUSH4 0x7AE7B6C5 EQ PUSH2 0xB8 JUMPI DUP1 PUSH4 0xA3EC138D EQ PUSH2 0xD9 JUMPI DUP1 PUSH4 0xCE50AA7D EQ PUSH2 0x10A JUMPI DUP1 PUSH4 0xD46A5D7E EQ PUSH2 0x126 JUMPI JUMPDEST PUSH1 0x0 DUP1 REVERT JUMPDEST PUSH2 0x81 PUSH1 0x4 DUP1 CALLDATASIZE SUB DUP2 ADD SWAP1 PUSH2 0x7C SWAP2 SWAP1 PUSH2 0xB62 JUMP JUMPDEST PUSH2 0x142 JUMP JUMPDEST PUSH1 0x40 MLOAD PUSH2 0x91 SWAP5 SWAP4 SWAP3 SWAP2 SWAP1 PUSH2 0xC37 JUMP JUMPDEST PUSH1 0x40 MLOAD DUP1 SWAP2 SUB SWAP1 RETURN JUMPDEST PUSH2 0xA2 PUSH2 0x20A JUMP JUMPDEST PUSH1 0x40 MLOAD PUSH2 0xAF SWAP2 SWAP1 PUSH2 0xCC4 JUMP JUMPDEST PUSH1 0x40 MLOAD DUP1 SWAP2 SUB SWAP1 RETURN JUMPDEST PUSH2 0xC0 PUSH2 0x22E JUMP JUMPDEST PUSH1 0x40 MLOAD PUSH2 0xD0 SWAP5 SWAP4 SWAP3 SWAP2 SWAP1 PUSH2 0xC37 JUMP JUMPDEST PUSH1 0x40 MLOAD DUP1 SWAP2 SUB SWAP1 RETURN JUMPDEST PUSH2 0xF3 PUSH1 0x4 DUP1 CALLDATASIZE SUB DUP2 ADD SWAP1 PUSH2 0xEE SWAP2 SWAP1 PUSH2 0xD0B JUMP JUMPDEST PUSH2 0x3DD JUMP JUMPDEST PUSH1 0x40 MLOAD PUSH2 0x101 SWAP3 SWAP2 SWAP1 PUSH2 0xD38 JUMP JUMPDEST PUSH1 0x40 MLOAD DUP1 SWAP2 SUB SWAP1 RETURN JUMPDEST PUSH2 0x124 PUSH1 0x4 DUP1 CALLDATASIZE SUB DUP2 ADD SWAP1 PUSH2 0x11F SWAP2 SWAP1 PUSH2 0xD68 JUMP JUMPDEST PUSH2 0x489 JUMP JUMPDEST STOP JUMPDEST PUSH2 0x140 PUSH1 0x4 DUP1 CALLDATASIZE SUB DUP2 ADD SWAP1 PUSH2 0x13B SWAP2 SWAP1 PUSH2 0xDE0 JUMP JUMPDEST PUSH2 0x651 JUMP JUMPDEST STOP JUMPDEST PUSH1 0x2 DUP2 DUP2 SLOAD DUP2 LT PUSH2 0x152 JUMPI PUSH1 0x0 DUP1 REVERT JUMPDEST SWAP1 PUSH1 0x0 MSTORE PUSH1 0x20 PUSH1 0x0 KECCAK256 SWAP1 PUSH1 0x4 MUL ADD PUSH1 0x0 SWAP2 POP SWAP1 POP DUP1 PUSH1 0x0 ADD DUP1 SLOAD PUSH2 0x175 SWAP1 PUSH2 0xE62 JUMP JUMPDEST DUP1 PUSH1 0x1F ADD PUSH1 0x20 DUP1 SWAP2 DIV MUL PUSH1 0x20 ADD PUSH1 0x40 MLOAD SWAP1 DUP2 ADD PUSH1 0x40 MSTORE DUP1 SWAP3 SWAP2 SWAP1 DUP2 DUP2 MSTORE PUSH1 0x20 ADD DUP3 DUP1 SLOAD PUSH2 0x1A1 SWAP1 PUSH2 0xE62 JUMP JUMPDEST DUP1 ISZERO PUSH2 0x1EE JUMPI DUP1 PUSH1 0x1F LT PUSH2 0x1C3 JUMPI PUSH2 0x100 DUP1 DUP4 SLOAD DIV MUL DUP4 MSTORE SWAP2 PUSH1 0x20 ADD SWAP2 PUSH2 0x1EE JUMP JUMPDEST DUP3 ADD SWAP2 SWAP1 PUSH1 0x0 MSTORE PUSH1 0x20 PUSH1 0x0 KECCAK256 SWAP1 JUMPDEST DUP2 SLOAD DUP2 MSTORE SWAP1 PUSH1 0x1 ADD SWAP1 PUSH1 0x20 ADD DUP1 DUP4 GT PUSH2 0x1D1 JUMPI DUP3 SWAP1 SUB PUSH1 0x1F AND DUP3 ADD SWAP2 JUMPDEST POP POP POP POP POP SWAP1 DUP1 PUSH1 0x1 ADD SLOAD SWAP1 DUP1 PUSH1 0x2 ADD SLOAD SWAP1 DUP1 PUSH1 0x3 ADD SLOAD SWAP1 POP DUP5 JUMP JUMPDEST PUSH1 0x0 DUP1 SLOAD SWAP1 PUSH2 0x100 EXP SWAP1 DIV PUSH20 0xFFFFFFFFFFFFFFFFFFFFFFFFFFFFFFFFFFFFFFFF AND DUP2 JUMP JUMPDEST PUSH1 0x60 PUSH1 0x0 DUP1 PUSH1 0x0 DUP1 PUSH1 0x0 SWAP1 POP JUMPDEST PUSH1 0x2 DUP1 SLOAD SWAP1 POP DUP2 LT ISZERO PUSH2 0x3D6 JUMPI PUSH1 0x2 DUP2 DUP2 SLOAD DUP2 LT PUSH2 0x25C JUMPI PUSH2 0x25B PUSH2 0xE94 JUMP JUMPDEST JUMPDEST SWAP1 PUSH1 0x0 MSTORE PUSH1 0x20 PUSH1 0x0 KECCAK256 SWAP1 PUSH1 0x4 MUL ADD PUSH1 0x3 ADD SLOAD PUSH1 0x2 DUP3 DUP2 SLOAD DUP2 LT PUSH2 0x282 JUMPI PUSH2 0x281 PUSH2 0xE94 JUMP JUMPDEST JUMPDEST SWAP1 PUSH1 0x0 MSTORE PUSH1 0x20 PUSH1 0x0 KECCAK256 SWAP1 PUSH1 0x4 MUL ADD PUSH1 0x2 ADD SLOAD GT ISZERO PUSH2 0x3C3 JUMPI PUSH1 0x2 DUP2 DUP2 SLOAD DUP2 LT PUSH2 0x2AE JUMPI PUSH2 0x2AD PUSH2 0xE94 JUMP JUMPDEST JUMPDEST SWAP1 PUSH1 0x0 MSTORE PUSH1 0x20 PUSH1 0x0 KECCAK256 SWAP1 PUSH1 0x4 MUL ADD PUSH1 0x0 ADD DUP1 SLOAD PUSH2 0x2CA SWAP1 PUSH2 0xE62 JUMP JUMPDEST DUP1 PUSH1 0x1F ADD PUSH1 0x20 DUP1 SWAP2 DIV MUL PUSH1 0x20 ADD PUSH1 0x40 MLOAD SWAP1 DUP2 ADD PUSH1 0x40 MSTORE DUP1 SWAP3 SWAP2 SWAP1 DUP2 DUP2 MSTORE PUSH1 0x20 ADD DUP3 DUP1 SLOAD PUSH2 0x2F6 SWAP1 PUSH2 0xE62 JUMP JUMPDEST DUP1 ISZERO PUSH2 0x343 JUMPI DUP1 PUSH1 0x1F LT PUSH2 0x318 JUMPI PUSH2 0x100 DUP1 DUP4 SLOAD DIV MUL DUP4 MSTORE SWAP2 PUSH1 0x20 ADD SWAP2 PUSH2 0x343 JUMP JUMPDEST DUP3 ADD SWAP2 SWAP1 PUSH1 0x0 MSTORE PUSH1 0x20 PUSH1 0x0 KECCAK256 SWAP1 JUMPDEST DUP2 SLOAD DUP2 MSTORE SWAP1 PUSH1 0x1 ADD SWAP1 PUSH1 0x20 ADD DUP1 DUP4 GT PUSH2 0x326 JUMPI DUP3 SWAP1 SUB PUSH1 0x1F AND DUP3 ADD SWAP2 JUMPDEST POP POP POP POP POP SWAP5 POP PUSH1 0x2 DUP2 DUP2 SLOAD DUP2 LT PUSH2 0x35E JUMPI PUSH2 0x35D PUSH2 0xE94 JUMP JUMPDEST JUMPDEST SWAP1 PUSH1 0x0 MSTORE PUSH1 0x20 PUSH1 0x0 KECCAK256 SWAP1 PUSH1 0x4 MUL ADD PUSH1 0x1 ADD SLOAD SWAP4 POP PUSH1 0x2 DUP2 DUP2 SLOAD DUP2 LT PUSH2 0x386 JUMPI PUSH2 0x385 PUSH2 0xE94 JUMP JUMPDEST JUMPDEST SWAP1 PUSH1 0x0 MSTORE PUSH1 0x20 PUSH1 0x0 KECCAK256 SWAP1 PUSH1 0x4 MUL ADD PUSH1 0x2 ADD SLOAD SWAP3 POP PUSH1 0x2 DUP2 DUP2 SLOAD DUP2 LT PUSH2 0x3AE JUMPI PUSH2 0x3AD PUSH2 0xE94 JUMP JUMPDEST JUMPDEST SWAP1 PUSH1 0x0 MSTORE PUSH1 0x20 PUSH1 0x0 KECCAK256 SWAP1 PUSH1 0x4 MUL ADD PUSH1 0x3 ADD SLOAD SWAP2 POP JUMPDEST DUP1 DUP1 PUSH2 0x3CE SWAP1 PUSH2 0xEF2 JUMP JUMPDEST SWAP2 POP POP PUSH2 0x23B JUMP JUMPDEST POP SWAP1 SWAP2 SWAP3 SWAP4 JUMP JUMPDEST PUSH1 0x1 PUSH1 0x20 MSTORE DUP1 PUSH1 0x0 MSTORE PUSH1 0x40 PUSH1 0x0 KECCAK256 PUSH1 0x0 SWAP2 POP SWAP1 POP DUP1 PUSH1 0x0 ADD DUP1 SLOAD PUSH2 0x400 SWAP1 PUSH2 0xE62 JUMP JUMPDEST DUP1 PUSH1 0x1F ADD PUSH1 0x20 DUP1 SWAP2 DIV MUL PUSH1 0x20 ADD PUSH1 0x40 MLOAD SWAP1 DUP2 ADD PUSH1 0x40 MSTORE DUP1 SWAP3 SWAP2 SWAP1 DUP2 DUP2 MSTORE PUSH1 0x20 ADD DUP3 DUP1 SLOAD PUSH2 0x42C SWAP1 PUSH2 0xE62 JUMP JUMPDEST DUP1 ISZERO PUSH2 0x479 JUMPI DUP1 PUSH1 0x1F LT PUSH2 0x44E JUMPI PUSH2 0x100 DUP1 DUP4 SLOAD DIV MUL DUP4 MSTORE SWAP2 PUSH1 0x20 ADD SWAP2 PUSH2 0x479 JUMP JUMPDEST DUP3 ADD SWAP2 SWAP1 PUSH1 0x0 MSTORE PUSH1 0x20 PUSH1 0x0 KECCAK256 SWAP1 JUMPDEST DUP2 SLOAD DUP2 MSTORE SWAP1 PUSH1 0x1 ADD SWAP1 PUSH1 0x20 ADD DUP1 DUP4 GT PUSH2 0x45C JUMPI DUP3 SWAP1 SUB PUSH1 0x1F AND DUP3 ADD SWAP2 JUMPDEST POP POP POP POP POP SWAP1 DUP1 PUSH1 0x1 ADD SLOAD SWAP1 POP DUP3 JUMP JUMPDEST PUSH1 0x1 PUSH1 0x0 DUP4 PUSH20 0xFFFFFFFFFFFFFFFFFFFFFFFFFFFFFFFFFFFFFFFF AND PUSH20 0xFFFFFFFFFFFFFFFFFFFFFFFFFFFFFFFFFFFFFFFF AND DUP2 MSTORE PUSH1 0x20 ADD SWAP1 DUP2 MSTORE PUSH1 0x20 ADD PUSH1 0x0 KECCAK256 PUSH1 0x3 ADD DUP2 DUP2 SLOAD DUP2 LT PUSH2 0x4DD JUMPI PUSH2 0x4DC PUSH2 0xE94 JUMP JUMPDEST JUMPDEST SWAP1 PUSH1 0x0 MSTORE PUSH1 0x20 PUSH1 0x0 KECCAK256 SWAP1 PUSH1 0x20 SWAP2 DUP3 DUP3 DIV ADD SWAP2 SWAP1 MOD SWAP1 SLOAD SWAP1 PUSH2 0x100 EXP SWAP1 DIV PUSH1 0xFF AND ISZERO PUSH2 0x53D JUMPI PUSH1 0x40 MLOAD PUSH32 0x8C379A000000000000000000000000000000000000000000000000000000000 DUP2 MSTORE PUSH1 0x4 ADD PUSH2 0x534 SWAP1 PUSH2 0xF87 JUMP JUMPDEST PUSH1 0x40 MLOAD DUP1 SWAP2 SUB SWAP1 REVERT JUMPDEST PUSH1 0x0 PUSH1 0x1 PUSH1 0x0 DUP5 PUSH20 0xFFFFFFFFFFFFFFFFFFFFFFFFFFFFFFFFFFFFFFFF AND PUSH20 0xFFFFFFFFFFFFFFFFFFFFFFFFFFFFFFFFFFFFFFFF AND DUP2 MSTORE PUSH1 0x20 ADD SWAP1 DUP2 MSTORE PUSH1 0x20 ADD PUSH1 0x0 KECCAK256 PUSH1 0x2 ADD DUP3 DUP2 SLOAD DUP2 LT PUSH2 0x593 JUMPI PUSH2 0x592 PUSH2 0xE94 JUMP JUMPDEST JUMPDEST SWAP1 PUSH1 0x0 MSTORE PUSH1 0x20 PUSH1 0x0 KECCAK256 ADD SLOAD EQ PUSH2 0x5A8 JUMPI PUSH1 0x0 DUP1 REVERT JUMPDEST PUSH1 0x1 PUSH1 0x0 DUP4 PUSH20 0xFFFFFFFFFFFFFFFFFFFFFFFFFFFFFFFFFFFFFFFF AND PUSH20 0xFFFFFFFFFFFFFFFFFFFFFFFFFFFFFFFFFFFFFFFF AND DUP2 MSTORE PUSH1 0x20 ADD SWAP1 DUP2 MSTORE PUSH1 0x20 ADD PUSH1 0x0 KECCAK256 PUSH1 0x1 ADD SLOAD PUSH1 0x1 PUSH1 0x0 DUP5 PUSH20 0xFFFFFFFFFFFFFFFFFFFFFFFFFFFFFFFFFFFFFFFF AND PUSH20 0xFFFFFFFFFFFFFFFFFFFFFFFFFFFFFFFFFFFFFFFF AND DUP2 MSTORE PUSH1 0x20 ADD SWAP1 DUP2 MSTORE PUSH1 0x20 ADD PUSH1 0x0 KECCAK256 PUSH1 0x2 ADD DUP3 DUP2 SLOAD DUP2 LT PUSH2 0x63F JUMPI PUSH2 0x63E PUSH2 0xE94 JUMP JUMPDEST JUMPDEST SWAP1 PUSH1 0x0 MSTORE PUSH1 0x20 PUSH1 0x0 KECCAK256 ADD DUP2 SWAP1 SSTORE POP POP POP JUMP JUMPDEST PUSH1 0x0 PUSH1 0x1 PUSH1 0x0 CALLER PUSH20 0xFFFFFFFFFFFFFFFFFFFFFFFFFFFFFFFFFFFFFFFF AND PUSH20 0xFFFFFFFFFFFFFFFFFFFFFFFFFFFFFFFFFFFFFFFF AND DUP2 MSTORE PUSH1 0x20 ADD SWAP1 DUP2 MSTORE PUSH1 0x20 ADD PUSH1 0x0 KECCAK256 SWAP1 POP PUSH1 0x0 DUP2 PUSH1 0x1 ADD SLOAD EQ ISZERO PUSH2 0x6DC JUMPI PUSH1 0x40 MLOAD PUSH32 0x8C379A000000000000000000000000000000000000000000000000000000000 DUP2 MSTORE PUSH1 0x4 ADD PUSH2 0x6D3 SWAP1 PUSH2 0xFF3 JUMP JUMPDEST PUSH1 0x40 MLOAD DUP1 SWAP2 SUB SWAP1 REVERT JUMPDEST DUP1 PUSH1 0x3 ADD DUP5 DUP2 SLOAD DUP2 LT PUSH2 0x6F2 JUMPI PUSH2 0x6F1 PUSH2 0xE94 JUMP JUMPDEST JUMPDEST SWAP1 PUSH1 0x0 MSTORE PUSH1 0x20 PUSH1 0x0 KECCAK256 SWAP1 PUSH1 0x20 SWAP2 DUP3 DUP3 DIV ADD SWAP2 SWAP1 MOD SWAP1 SLOAD SWAP1 PUSH2 0x100 EXP SWAP1 DIV PUSH1 0xFF AND ISZERO DUP1 PUSH2 0x79E JUMPI POP PUSH1 0x0 PUSH1 0x1 PUSH1 0x0 DUP1 PUSH1 0x0 SWAP1 SLOAD SWAP1 PUSH2 0x100 EXP SWAP1 DIV PUSH20 0xFFFFFFFFFFFFFFFFFFFFFFFFFFFFFFFFFFFFFFFF AND PUSH20 0xFFFFFFFFFFFFFFFFFFFFFFFFFFFFFFFFFFFFFFFF AND PUSH20 0xFFFFFFFFFFFFFFFFFFFFFFFFFFFFFFFFFFFFFFFF AND DUP2 MSTORE PUSH1 0x20 ADD SWAP1 DUP2 MSTORE PUSH1 0x20 ADD PUSH1 0x0 KECCAK256 PUSH1 0x2 ADD DUP6 DUP2 SLOAD DUP2 LT PUSH2 0x790 JUMPI PUSH2 0x78F PUSH2 0xE94 JUMP JUMPDEST JUMPDEST SWAP1 PUSH1 0x0 MSTORE PUSH1 0x20 PUSH1 0x0 KECCAK256 ADD SLOAD EQ ISZERO JUMPDEST PUSH2 0x7DD JUMPI PUSH1 0x40 MLOAD PUSH32 0x8C379A000000000000000000000000000000000000000000000000000000000 DUP2 MSTORE PUSH1 0x4 ADD PUSH2 0x7D4 SWAP1 PUSH2 0x105F JUMP JUMPDEST PUSH1 0x40 MLOAD DUP1 SWAP2 SUB SWAP1 REVERT JUMPDEST DUP2 PUSH1 0x1 PUSH1 0x0 DUP1 PUSH1 0x0 SWAP1 SLOAD SWAP1 PUSH2 0x100 EXP SWAP1 DIV PUSH20 0xFFFFFFFFFFFFFFFFFFFFFFFFFFFFFFFFFFFFFFFF AND PUSH20 0xFFFFFFFFFFFFFFFFFFFFFFFFFFFFFFFFFFFFFFFF AND PUSH20 0xFFFFFFFFFFFFFFFFFFFFFFFFFFFFFFFFFFFFFFFF AND DUP2 MSTORE PUSH1 0x20 ADD SWAP1 DUP2 MSTORE PUSH1 0x20 ADD PUSH1 0x0 KECCAK256 PUSH1 0x2 ADD DUP6 DUP2 SLOAD DUP2 LT PUSH2 0x853 JUMPI PUSH2 0x852 PUSH2 0xE94 JUMP JUMPDEST JUMPDEST SWAP1 PUSH1 0x0 MSTORE PUSH1 0x20 PUSH1 0x0 KECCAK256 ADD SLOAD LT PUSH2 0x89E JUMPI PUSH1 0x40 MLOAD PUSH32 0x8C379A000000000000000000000000000000000000000000000000000000000 DUP2 MSTORE PUSH1 0x4 ADD PUSH2 0x895 SWAP1 PUSH2 0x10CB JUMP JUMPDEST PUSH1 0x40 MLOAD DUP1 SWAP2 SUB SWAP1 REVERT JUMPDEST PUSH1 0x1 DUP2 PUSH1 0x3 ADD DUP6 DUP2 SLOAD DUP2 LT PUSH2 0x8B6 JUMPI PUSH2 0x8B5 PUSH2 0xE94 JUMP JUMPDEST JUMPDEST SWAP1 PUSH1 0x0 MSTORE PUSH1 0x20 PUSH1 0x0 KECCAK256 SWAP1 PUSH1 0x20 SWAP2 DUP3 DUP3 DIV ADD SWAP2 SWAP1 MOD PUSH2 0x100 EXP DUP2 SLOAD DUP2 PUSH1 0xFF MUL NOT AND SWAP1 DUP4 ISZERO ISZERO MUL OR SWAP1 SSTORE POP DUP3 ISZERO PUSH2 0x926 JUMPI DUP2 PUSH1 0x2 DUP6 DUP2 SLOAD DUP2 LT PUSH2 0x8FA JUMPI PUSH2 0x8F9 PUSH2 0xE94 JUMP JUMPDEST JUMPDEST SWAP1 PUSH1 0x0 MSTORE PUSH1 0x20 PUSH1 0x0 KECCAK256 SWAP1 PUSH1 0x4 MUL ADD PUSH1 0x2 ADD PUSH1 0x0 DUP3 DUP3 SLOAD PUSH2 0x91A SWAP2 SWAP1 PUSH2 0x10EB JUMP JUMPDEST SWAP3 POP POP DUP2 SWAP1 SSTORE POP PUSH2 0x963 JUMP JUMPDEST DUP2 PUSH1 0x2 DUP6 DUP2 SLOAD DUP2 LT PUSH2 0x93B JUMPI PUSH2 0x93A PUSH2 0xE94 JUMP JUMPDEST JUMPDEST SWAP1 PUSH1 0x0 MSTORE PUSH1 0x20 PUSH1 0x0 KECCAK256 SWAP1 PUSH1 0x4 MUL ADD PUSH1 0x3 ADD PUSH1 0x0 DUP3 DUP3 SLOAD PUSH2 0x95B SWAP2 SWAP1 PUSH2 0x10EB JUMP JUMPDEST SWAP3 POP POP DUP2 SWAP1 SSTORE POP JUMPDEST DUP2 PUSH1 0x1 PUSH1 0x0 DUP1 PUSH1 0x0 SWAP1 SLOAD SWAP1 PUSH2 0x100 EXP SWAP1 DIV PUSH20 0xFFFFFFFFFFFFFFFFFFFFFFFFFFFFFFFFFFFFFFFF AND PUSH20 0xFFFFFFFFFFFFFFFFFFFFFFFFFFFFFFFFFFFFFFFF AND PUSH20 0xFFFFFFFFFFFFFFFFFFFFFFFFFFFFFFFFFFFFFFFF AND DUP2 MSTORE PUSH1 0x20 ADD SWAP1 DUP2 MSTORE PUSH1 0x20 ADD PUSH1 0x0 KECCAK256 PUSH1 0x2 ADD DUP6 DUP2 SLOAD DUP2 LT PUSH2 0x9D9 JUMPI PUSH2 0x9D8 PUSH2 0xE94 JUMP JUMPDEST JUMPDEST SWAP1 PUSH1 0x0 MSTORE PUSH1 0x20 PUSH1 0x0 KECCAK256 ADD PUSH1 0x0 DUP3 DUP3 SLOAD PUSH2 0x9F2 SWAP2 SWAP1 PUSH2 0x1141 JUMP JUMPDEST SWAP3 POP POP DUP2 SWAP1 SSTORE POP PUSH1 0x1 PUSH1 0x0 DUP1 PUSH1 0x0 SWAP1 SLOAD SWAP1 PUSH2 0x100 EXP SWAP1 DIV PUSH20 0xFFFFFFFFFFFFFFFFFFFFFFFFFFFFFFFFFFFFFFFF AND PUSH20 0xFFFFFFFFFFFFFFFFFFFFFFFFFFFFFFFFFFFFFFFF AND PUSH20 0xFFFFFFFFFFFFFFFFFFFFFFFFFFFFFFFFFFFFFFFF AND DUP2 MSTORE PUSH1 0x20 ADD SWAP1 DUP2 MSTORE PUSH1 0x20 ADD PUSH1 0x0 KECCAK256 PUSH1 0x1 ADD SLOAD PUSH1 0x1 PUSH1 0x0 DUP1 PUSH1 0x0 SWAP1 SLOAD SWAP1 PUSH2 0x100 EXP SWAP1 DIV PUSH20 0xFFFFFFFFFFFFFFFFFFFFFFFFFFFFFFFFFFFFFFFF AND PUSH20 0xFFFFFFFFFFFFFFFFFFFFFFFFFFFFFFFFFFFFFFFF AND PUSH20 0xFFFFFFFFFFFFFFFFFFFFFFFFFFFFFFFFFFFFFFFF AND DUP2 MSTORE PUSH1 0x20 ADD SWAP1 DUP2 MSTORE PUSH1 0x20 ADD PUSH1 0x0 KECCAK256 PUSH1 0x2 ADD DUP6 DUP2 SLOAD DUP2 LT PUSH2 0xAD2 JUMPI PUSH2 0xAD1 PUSH2 0xE94 JUMP JUMPDEST JUMPDEST SWAP1 PUSH1 0x0 MSTORE PUSH1 0x20 PUSH1 0x0 KECCAK256 ADD SLOAD EQ ISZERO PUSH2 0xB21 JUMPI PUSH1 0x1 PUSH1 0x2 DUP6 DUP2 SLOAD DUP2 LT PUSH2 0xAF9 JUMPI PUSH2 0xAF8 PUSH2 0xE94 JUMP JUMPDEST JUMPDEST SWAP1 PUSH1 0x0 MSTORE PUSH1 0x20 PUSH1 0x0 KECCAK256 SWAP1 PUSH1 0x4 MUL ADD PUSH1 0x1 ADD PUSH1 0x0 DUP3 DUP3 SLOAD PUSH2 0xB19 SWAP2 SWAP1 PUSH2 0x10EB JUMP JUMPDEST SWAP3 POP POP DUP2 SWAP1 SSTORE POP JUMPDEST POP POP POP POP JUMP JUMPDEST PUSH1 0x0 DUP1 REVERT JUMPDEST PUSH1 0x0 DUP2 SWAP1 POP SWAP2 SWAP1 POP JUMP JUMPDEST PUSH2 0xB3F DUP2 PUSH2 0xB2C JUMP JUMPDEST DUP2 EQ PUSH2 0xB4A JUMPI PUSH1 0x0 DUP1 REVERT JUMPDEST POP JUMP JUMPDEST PUSH1 0x0 DUP2 CALLDATALOAD SWAP1 POP PUSH2 0xB5C DUP2 PUSH2 0xB36 JUMP JUMPDEST SWAP3 SWAP2 POP POP JUMP JUMPDEST PUSH1 0x0 PUSH1 0x20 DUP3 DUP5 SUB SLT ISZERO PUSH2 0xB78 JUMPI PUSH2 0xB77 PUSH2 0xB27 JUMP JUMPDEST JUMPDEST PUSH1 0x0 PUSH2 0xB86 DUP5 DUP3 DUP6 ADD PUSH2 0xB4D JUMP JUMPDEST SWAP2 POP POP SWAP3 SWAP2 POP POP JUMP JUMPDEST PUSH1 0x0 DUP2 MLOAD SWAP1 POP SWAP2 SWAP1 POP JUMP JUMPDEST PUSH1 0x0 DUP3 DUP3 MSTORE PUSH1 0x20 DUP3 ADD SWAP1 POP SWAP3 SWAP2 POP POP JUMP JUMPDEST PUSH1 0x0 JUMPDEST DUP4 DUP2 LT ISZERO PUSH2 0xBC9 JUMPI DUP1 DUP3 ADD MLOAD DUP2 DUP5 ADD MSTORE PUSH1 0x20 DUP2 ADD SWAP1 POP PUSH2 0xBAE JUMP JUMPDEST DUP4 DUP2 GT ISZERO PUSH2 0xBD8 JUMPI PUSH1 0x0 DUP5 DUP5 ADD MSTORE JUMPDEST POP POP POP POP JUMP JUMPDEST PUSH1 0x0 PUSH1 0x1F NOT PUSH1 0x1F DUP4 ADD AND SWAP1 POP SWAP2 SWAP1 POP JUMP JUMPDEST PUSH1 0x0 PUSH2 0xBFA DUP3 PUSH2 0xB8F JUMP JUMPDEST PUSH2 0xC04 DUP2 DUP6 PUSH2 0xB9A JUMP JUMPDEST SWAP4 POP PUSH2 0xC14 DUP2 DUP6 PUSH1 0x20 DUP7 ADD PUSH2 0xBAB JUMP JUMPDEST PUSH2 0xC1D DUP2 PUSH2 0xBDE JUMP JUMPDEST DUP5 ADD SWAP2 POP POP SWAP3 SWAP2 POP POP JUMP JUMPDEST PUSH2 0xC31 DUP2 PUSH2 0xB2C JUMP JUMPDEST DUP3 MSTORE POP POP JUMP JUMPDEST PUSH1 0x0 PUSH1 0x80 DUP3 ADD SWAP1 POP DUP2 DUP2 SUB PUSH1 0x0 DUP4 ADD MSTORE PUSH2 0xC51 DUP2 DUP8 PUSH2 0xBEF JUMP JUMPDEST SWAP1 POP PUSH2 0xC60 PUSH1 0x20 DUP4 ADD DUP7 PUSH2 0xC28 JUMP JUMPDEST PUSH2 0xC6D PUSH1 0x40 DUP4 ADD DUP6 PUSH2 0xC28 JUMP JUMPDEST PUSH2 0xC7A PUSH1 0x60 DUP4 ADD DUP5 PUSH2 0xC28 JUMP JUMPDEST SWAP6 SWAP5 POP POP POP POP POP JUMP JUMPDEST PUSH1 0x0 PUSH20 0xFFFFFFFFFFFFFFFFFFFFFFFFFFFFFFFFFFFFFFFF DUP3 AND SWAP1 POP SWAP2 SWAP1 POP JUMP JUMPDEST PUSH1 0x0 PUSH2 0xCAE DUP3 PUSH2 0xC83 JUMP JUMPDEST SWAP1 POP SWAP2 SWAP1 POP JUMP JUMPDEST PUSH2 0xCBE DUP2 PUSH2 0xCA3 JUMP JUMPDEST DUP3 MSTORE POP POP JUMP JUMPDEST PUSH1 0x0 PUSH1 0x20 DUP3 ADD SWAP1 POP PUSH2 0xCD9 PUSH1 0x0 DUP4 ADD DUP5 PUSH2 0xCB5 JUMP JUMPDEST SWAP3 SWAP2 POP POP JUMP JUMPDEST PUSH2 0xCE8 DUP2 PUSH2 0xCA3 JUMP JUMPDEST DUP2 EQ PUSH2 0xCF3 JUMPI PUSH1 0x0 DUP1 REVERT JUMPDEST POP JUMP JUMPDEST PUSH1 0x0 DUP2 CALLDATALOAD SWAP1 POP PUSH2 0xD05 DUP2 PUSH2 0xCDF JUMP JUMPDEST SWAP3 SWAP2 POP POP JUMP JUMPDEST PUSH1 0x0 PUSH1 0x20 DUP3 DUP5 SUB SLT ISZERO PUSH2 0xD21 JUMPI PUSH2 0xD20 PUSH2 0xB27 JUMP JUMPDEST JUMPDEST PUSH1 0x0 PUSH2 0xD2F DUP5 DUP3 DUP6 ADD PUSH2 0xCF6 JUMP JUMPDEST SWAP2 POP POP SWAP3 SWAP2 POP POP JUMP JUMPDEST PUSH1 0x0 PUSH1 0x40 DUP3 ADD SWAP1 POP DUP2 DUP2 SUB PUSH1 0x0 DUP4 ADD MSTORE PUSH2 0xD52 DUP2 DUP6 PUSH2 0xBEF JUMP JUMPDEST SWAP1 POP PUSH2 0xD61 PUSH1 0x20 DUP4 ADD DUP5 PUSH2 0xC28 JUMP JUMPDEST SWAP4 SWAP3 POP POP POP JUMP JUMPDEST PUSH1 0x0 DUP1 PUSH1 0x40 DUP4 DUP6 SUB SLT ISZERO PUSH2 0xD7F JUMPI PUSH2 0xD7E PUSH2 0xB27 JUMP JUMPDEST JUMPDEST PUSH1 0x0 PUSH2 0xD8D DUP6 DUP3 DUP7 ADD PUSH2 0xCF6 JUMP JUMPDEST SWAP3 POP POP PUSH1 0x20 PUSH2 0xD9E DUP6 DUP3 DUP7 ADD PUSH2 0xB4D JUMP JUMPDEST SWAP2 POP POP SWAP3 POP SWAP3 SWAP1 POP JUMP JUMPDEST PUSH1 0x0 DUP2 ISZERO ISZERO SWAP1 POP SWAP2 SWAP1 POP JUMP JUMPDEST PUSH2 0xDBD DUP2 PUSH2 0xDA8 JUMP JUMPDEST DUP2 EQ PUSH2 0xDC8 JUMPI PUSH1 0x0 DUP1 REVERT JUMPDEST POP JUMP JUMPDEST PUSH1 0x0 DUP2 CALLDATALOAD SWAP1 POP PUSH2 0xDDA DUP2 PUSH2 0xDB4 JUMP JUMPDEST SWAP3 SWAP2 POP POP JUMP JUMPDEST PUSH1 0x0 DUP1 PUSH1 0x0 PUSH1 0x60 DUP5 DUP7 SUB SLT ISZERO PUSH2 0xDF9 JUMPI PUSH2 0xDF8 PUSH2 0xB27 JUMP JUMPDEST JUMPDEST PUSH1 0x0 PUSH2 0xE07 DUP7 DUP3 DUP8 ADD PUSH2 0xB4D JUMP JUMPDEST SWAP4 POP POP PUSH1 0x20 PUSH2 0xE18 DUP7 DUP3 DUP8 ADD PUSH2 0xDCB JUMP JUMPDEST SWAP3 POP POP PUSH1 0x40 PUSH2 0xE29 DUP7 DUP3 DUP8 ADD PUSH2 0xB4D JUMP JUMPDEST SWAP2 POP POP SWAP3 POP SWAP3 POP SWAP3 JUMP JUMPDEST PUSH32 0x4E487B7100000000000000000000000000000000000000000000000000000000 PUSH1 0x0 MSTORE PUSH1 0x22 PUSH1 0x4 MSTORE PUSH1 0x24 PUSH1 0x0 REVERT JUMPDEST PUSH1 0x0 PUSH1 0x2 DUP3 DIV SWAP1 POP PUSH1 0x1 DUP3 AND DUP1 PUSH2 0xE7A JUMPI PUSH1 0x7F DUP3 AND SWAP2 POP JUMPDEST PUSH1 0x20 DUP3 LT DUP2 EQ ISZERO PUSH2 0xE8E JUMPI PUSH2 0xE8D PUSH2 0xE33 JUMP JUMPDEST JUMPDEST POP SWAP2 SWAP1 POP JUMP JUMPDEST PUSH32 0x4E487B7100000000000000000000000000000000000000000000000000000000 PUSH1 0x0 MSTORE PUSH1 0x32 PUSH1 0x4 MSTORE PUSH1 0x24 PUSH1 0x0 REVERT JUMPDEST PUSH32 0x4E487B7100000000000000000000000000000000000000000000000000000000 PUSH1 0x0 MSTORE PUSH1 0x11 PUSH1 0x4 MSTORE PUSH1 0x24 PUSH1 0x0 REVERT JUMPDEST PUSH1 0x0 PUSH2 0xEFD DUP3 PUSH2 0xB2C JUMP JUMPDEST SWAP2 POP PUSH32 0xFFFFFFFFFFFFFFFFFFFFFFFFFFFFFFFFFFFFFFFFFFFFFFFFFFFFFFFFFFFFFFFF DUP3 EQ ISZERO PUSH2 0xF30 JUMPI PUSH2 0xF2F PUSH2 0xEC3 JUMP JUMPDEST JUMPDEST PUSH1 0x1 DUP3 ADD SWAP1 POP SWAP2 SWAP1 POP JUMP JUMPDEST PUSH32 0x54686520766F74657220616C726561647920766F746564000000000000000000 PUSH1 0x0 DUP3 ADD MSTORE POP JUMP JUMPDEST PUSH1 0x0 PUSH2 0xF71 PUSH1 0x17 DUP4 PUSH2 0xB9A JUMP JUMPDEST SWAP2 POP PUSH2 0xF7C DUP3 PUSH2 0xF3B JUMP JUMPDEST PUSH1 0x20 DUP3 ADD SWAP1 POP SWAP2 SWAP1 POP JUMP JUMPDEST PUSH1 0x0 PUSH1 0x20 DUP3 ADD SWAP1 POP DUP2 DUP2 SUB PUSH1 0x0 DUP4 ADD MSTORE PUSH2 0xFA0 DUP2 PUSH2 0xF64 JUMP JUMPDEST SWAP1 POP SWAP2 SWAP1 POP JUMP JUMPDEST PUSH32 0x486173206E6F20726967687420746F20766F7465000000000000000000000000 PUSH1 0x0 DUP3 ADD MSTORE POP JUMP JUMPDEST PUSH1 0x0 PUSH2 0xFDD PUSH1 0x14 DUP4 PUSH2 0xB9A JUMP JUMPDEST SWAP2 POP PUSH2 0xFE8 DUP3 PUSH2 0xFA7 JUMP JUMPDEST PUSH1 0x20 DUP3 ADD SWAP1 POP SWAP2 SWAP1 POP JUMP JUMPDEST PUSH1 0x0 PUSH1 0x20 DUP3 ADD SWAP1 POP DUP2 DUP2 SUB PUSH1 0x0 DUP4 ADD MSTORE PUSH2 0x100C DUP2 PUSH2 0xFD0 JUMP JUMPDEST SWAP1 POP SWAP2 SWAP1 POP JUMP JUMPDEST PUSH32 0x416C726561647920766F74656400000000000000000000000000000000000000 PUSH1 0x0 DUP3 ADD MSTORE POP JUMP JUMPDEST PUSH1 0x0 PUSH2 0x1049 PUSH1 0xD DUP4 PUSH2 0xB9A JUMP JUMPDEST SWAP2 POP PUSH2 0x1054 DUP3 PUSH2 0x1013 JUMP JUMPDEST PUSH1 0x20 DUP3 ADD SWAP1 POP SWAP2 SWAP1 POP JUMP JUMPDEST PUSH1 0x0 PUSH1 0x20 DUP3 ADD SWAP1 POP DUP2 DUP2 SUB PUSH1 0x0 DUP4 ADD MSTORE PUSH2 0x1078 DUP2 PUSH2 0x103C JUMP JUMPDEST SWAP1 POP SWAP2 SWAP1 POP JUMP JUMPDEST PUSH32 0x4E6F7420656E6F75676820766F74657300000000000000000000000000000000 PUSH1 0x0 DUP3 ADD MSTORE POP JUMP JUMPDEST PUSH1 0x0 PUSH2 0x10B5 PUSH1 0x10 DUP4 PUSH2 0xB9A JUMP JUMPDEST SWAP2 POP PUSH2 0x10C0 DUP3 PUSH2 0x107F JUMP JUMPDEST PUSH1 0x20 DUP3 ADD SWAP1 POP SWAP2 SWAP1 POP JUMP JUMPDEST PUSH1 0x0 PUSH1 0x20 DUP3 ADD SWAP1 POP DUP2 DUP2 SUB PUSH1 0x0 DUP4 ADD MSTORE PUSH2 0x10E4 DUP2 PUSH2 0x10A8 JUMP JUMPDEST SWAP1 POP SWAP2 SWAP1 POP JUMP JUMPDEST PUSH1 0x0 PUSH2 0x10F6 DUP3 PUSH2 0xB2C JUMP JUMPDEST SWAP2 POP PUSH2 0x1101 DUP4 PUSH2 0xB2C JUMP JUMPDEST SWAP3 POP DUP3 PUSH32 0xFFFFFFFFFFFFFFFFFFFFFFFFFFFFFFFFFFFFFFFFFFFFFFFFFFFFFFFFFFFFFFFF SUB DUP3 GT ISZERO PUSH2 0x1136 JUMPI PUSH2 0x1135 PUSH2 0xEC3 JUMP JUMPDEST JUMPDEST DUP3 DUP3 ADD SWAP1 POP SWAP3 SWAP2 POP POP JUMP JUMPDEST PUSH1 0x0 PUSH2 0x114C DUP3 PUSH2 0xB2C JUMP JUMPDEST SWAP2 POP PUSH2 0x1157 DUP4 PUSH2 0xB2C JUMP JUMPDEST SWAP3 POP DUP3 DUP3 LT ISZERO PUSH2 0x116A JUMPI PUSH2 0x1169 PUSH2 0xEC3 JUMP JUMPDEST JUMPDEST DUP3 DUP3 SUB SWAP1 POP SWAP3 SWAP2 POP POP JUMP INVALID LOG2 PUSH5 0x6970667358 0x22 SLT KECCAK256 0x27 SLOAD DUP14 EQ BYTE 0xBF BYTE PUSH30 0xF4F265E976859D9D139462E63F8C1AE25C7056A088F6868F64736F6C6343 STOP ADDMOD MULMOD STOP CALLER "
		},
		"gasEstimates": {
			"creation": {
				"codeDepositCost": "904600",
				"executionCost": "infinite",
				"totalCost": "infinite"
			},
			"external": {
				"getPassedProposalResult()": "infinite",
				"giveRightToVote(address,uint256)": "37739",
				"proposals(uint256)": "infinite",
				"shareholders()": "2511",
				"vote(uint256,bool,uint256)": "infinite",
				"voters(address)": "infinite"
			}
		},
		"methodIdentifiers": {
			"getPassedProposalResult()": "7ae7b6c5",
			"giveRightToVote(address,uint256)": "ce50aa7d",
			"proposals(uint256)": "013cf08b",
			"shareholders()": "3723bc0e",
			"vote(uint256,bool,uint256)": "d46a5d7e",
			"voters(address)": "a3ec138d"
		}
	},
	"abi": [
		{
			"inputs": [
				{
					"internalType": "string",
					"name": "_name",
					"type": "string"
				},
				{
					"internalType": "uint256",
					"name": "_sharesNum",
					"type": "uint256"
				},
				{
					"internalType": "string[]",
					"name": "_proposalsNames",
					"type": "string[]"
				}
			],
			"stateMutability": "nonpayable",
			"type": "constructor"
		},
		{
			"inputs": [],
			"name": "getPassedProposalResult",
			"outputs": [
				{
					"internalType": "string",
					"name": "winningProposal_",
					"type": "string"
				},
				{
					"internalType": "uint256",
					"name": "voteCount_",
					"type": "uint256"
				},
				{
					"internalType": "uint256",
					"name": "agree_",
					"type": "uint256"
				},
				{
					"internalType": "uint256",
					"name": "disagree_",
					"type": "uint256"
				}
			],
			"stateMutability": "view",
			"type": "function"
		},
		{
			"inputs": [
				{
					"internalType": "address",
					"name": "voter",
					"type": "address"
				},
				{
					"internalType": "uint256",
					"name": "proposal",
					"type": "uint256"
				}
			],
			"name": "giveRightToVote",
			"outputs": [],
			"stateMutability": "nonpayable",
			"type": "function"
		},
		{
			"inputs": [
				{
					"internalType": "uint256",
					"name": "",
					"type": "uint256"
				}
			],
			"name": "proposals",
			"outputs": [
				{
					"internalType": "string",
					"name": "name",
					"type": "string"
				},
				{
					"internalType": "uint256",
					"name": "voteCount",
					"type": "uint256"
				},
				{
					"internalType": "uint256",
					"name": "agree",
					"type": "uint256"
				},
				{
					"internalType": "uint256",
					"name": "disagree",
					"type": "uint256"
				}
			],
			"stateMutability": "view",
			"type": "function"
		},
		{
			"inputs": [],
			"name": "shareholders",
			"outputs": [
				{
					"internalType": "address",
					"name": "",
					"type": "address"
				}
			],
			"stateMutability": "view",
			"type": "function"
		},
		{
			"inputs": [
				{
					"internalType": "uint256",
					"name": "proposal",
					"type": "uint256"
				},
				{
					"internalType": "bool",
					"name": "choice",
					"type": "bool"
				},
				{
					"internalType": "uint256",
					"name": "votes",
					"type": "uint256"
				}
			],
			"name": "vote",
			"outputs": [],
			"stateMutability": "nonpayable",
			"type": "function"
		},
		{
			"inputs": [
				{
					"internalType": "address",
					"name": "",
					"type": "address"
				}
			],
			"name": "voters",
			"outputs": [
				{
					"internalType": "string",
					"name": "name",
					"type": "string"
				},
				{
					"internalType": "uint256",
					"name": "sharesNum",
					"type": "uint256"
				}
			],
			"stateMutability": "view",
			"type": "function"
		}
	]
}